:020000021000EC
:1080000000400020ADE10100F5E10100F7E10100D1
:108010000000000000000000000000000000000060
:10802000000000000000000000000000F9E1010075
:108030000000000000000000FBE10100FDE1010084
:10804000FFE10100FFE101008DB50100FFE101004A
:10805000FFE101000000000099AF0100FFE1010015
:10806000C59C0100219D0100FFE10100FFE101002D
:10807000FFE10100FFE10100FFE10100FFE101007C
:10808000FFE10100DD9F0100FFE10100FFE10100D0
:10809000BDA00100FFE1010079E10100FFE1010065
:1080A000FFE10100FFE1010000000000000000000E
:1080B00000000000000000000000000000000000C0
:1080C00010B5064C2378002B07D1054B002B02D0AE
:1080D000044800E000BF0123237010BD842000206D
:1080E0000000000024F40100044B10B5002B03D065
:1080F0000349044800E000BF10BDC0460000000076
:108100008820002024F40100164B002B00D1144BD2
:108110009D46402292029A1A924600218B460F46B3
:108120001348144A121A00F065F80F4B002B00D0C8
:1081300098470E4B002B00D09847002000210400E8
:108140000D000D48002802D00C4800E000BF00F0F0
:108150002DF82000290004F093FA00F011F8C04631
:1081600000000800004000200000000000000000A7
:10817000842000205C290020000000000000000096
:10818000084B10B50400002B02D0002100E000BF16
:10819000054B1868836A002B00D09847200000F038
:1081A00031F8C04600000000E0F1010070B5002683
:1081B0000C4D0D4C641BA410A64209D1002607F0FB
:1081C00003F80A4D0A4C641BA410A64205D170BDE9
:1081D000B300EB5898470136EEE7B300EB589847E9
:1081E0000136F2E77C2000207C2000207C2000204B
:1081F0008020002003001218934200D170471970AC
:108200000133F9E7FEE7C046F0B5C646154D4B0011
:10821000ED18154B0E0000240127984600B52B5D84
:10822000002B0DD02B5D013BDBB22B552B5D002BC2
:1082300016D14246B3009B5830001B68DB69984753
:10824000012C0BD1002F06D0074BB600F3580221AA
:10825000586801F02FFD04BC9046F0BD0124DEE714
:108260000027EDE7FC280020A0200020F0B55746AD
:108270004E464546DE462323E0B505680400EB5C28
:1082800083B00E0017000820022B12D14B00994634
:108290005B189B009846AA46C24453465B689346C7
:1082A0009A420DD1EB69002B02D062685079984751
:1082B000002003B03CBC90469946A246AB46F0BDB8
:1082C0006068DF494279895CC9B2FF2911D0FE2973
:1082D00008D001F091FC63685A79DA4B9100CB58D1
:1082E000984201D01120E4E7FF23D5498B5453462F
:1082F0005B68FE21D2488154002B43D123689A4603
:1083000020235246D05C002F00D1BEE0AB699F42D3
:1083100000D2D9E001F07EF952462123D05C01F071
:1083200079F94B469B199B009846236843441D00EE
:10833000187A01F06FF9687A01F06CF953469D697B
:10834000AF4200D392E000235A463100606801F04A
:1083500059FC4B465A469B199B0053445A60FF22D6
:108360006068B7494379CA542268D269002A9FD00D
:10837000B54A5B00D318022202219A5501F088FC0D
:10838000002096E720202168AA698A46085C9A4264
:10839000B9D92223CD5C002F02D0974200D25BE1F5
:1083A00001F038F92123984653464246985C01F083
:1083B00031F92900A54801F071FA01224B4610005D
:1083C0009B199B005344197A5B7A88409A40290094
:1083D000104301F0E1FA9E4BED009C466544002FEE
:1083E00000D1DFE053469B6952469B462023022181
:1083F0006068D75C01F0FAFB2A000100380001F048
:10840000CBF8002301220321606801F0FBFB00216F
:1084100063688C4A5B799B0099505346424602310F
:1084200060689D5C01F0E2FB03210700606801F0D9
:10843000D7FB39000200280001F0AEF85B461D04AE
:108440002D0C20235246D05C01F0CAF8212352465D
:10845000D05C01F0C5F84B469B199B0053445D600E
:108460000322606876494379CA547DE7236842460F
:108470004344997A2D044B1E99415346C9B29858EA
:1084800002F04AFC2B0C9B465DE701F0C3F8524614
:108490002123D05C01F0BEF84B469D192368AD0046
:1084A0005F19387A01F0B6F8787A01F0B3F82368EA
:1084B0005B19997A4B4259415346C9B2585902F057
:1084C0002BFC00239B463EE722235246D55C01F05D
:1084D000A1F852462123D05C01F09CF84A4693193A
:1084E0009A0093462268D0445A449146107A01F08B
:1084F00091F84A46507A01F08DF800233A00310095
:10850000606801F07FFB2900504801F0C7F90122A3
:10851000D3445B461000197A5B7A88409A40290060
:10852000104301F039FA4B4AED0094464246526836
:1085300065442023002A63D05246D35C0221606840
:10854000994601F053FB2A000100484601F024F847
:10855000002301220321606801F054FB00216368BD
:10856000384A5B799B009950534621229D5C023129
:10857000606801F03BFB03218146606801F030FB3D
:1085800049460200280001F007F820235246D05C3B
:1085900001F026F821235246D05C01F021F8434631
:1085A0005F605DE72023524631006068D75C01F0D0
:1085B0001DFB2A000100380000F0EEFF002200231E
:1085C0000321606801F01EFB6368310018005D79CB
:1085D00001F012FB1B4BAD00E85042465346310000
:1085E00060689D5C01F002FB03210700606801F0F8
:1085F000F7FA39000200280000F0CEFF002520E73E
:108600005246D25C31006068914601F0EFFA2A00D0
:108610000100484600F0C0FF0023002203216068EB
:1086200001F0F0FA626831001000557901F0E4FAC7
:10863000044BAD00E850524621233100D55C97E74A
:10864000A8200020AC200020FC280020FF3F0000D4
:1086500004F0014000F0014000F0DCFF21239946C6
:1086600053464A46985C00F0D5FF2900304801F097
:1086700015F952462023D35C012249469346100047
:1086800052469840535C5A469A402900104301F0E4
:1086900083F952462023D35C03216068009301F0E4
:1086A000A5FA31000190606801F09AFA0199020080
:1086B000009800F071FFA2236068DB000268D044DC
:1086C000D358DBB25A42534142465268DB199342B7
:1086D0001CD353464A4658469B5C2900984001F0FB
:1086E000DDF843465F603A0000230321606801F033
:1086F00089FA280001F0BCF863680E4A5B799B0098
:108700009F5060680C4A4379D6542DE64A4653463A
:108710009B5C0321994601F069FA4346824618683A
:1087200002F0EAFA51460200484600F035FFD8E769
:10873000FF3F0000AC200020A8200020F0B54E46EE
:108740004546DE4657462323E0B505680400EB5C4A
:1087500083B00E000820022B1AD1288B64215043CD
:1087600005F04EFD03049A4677001B0C9946BB1991
:108770009B009B46AB4400935B465B6880464B4541
:108780000DD1EB69002B02D0626850799847002028
:1087900003B03CBC90469946A246AB46F0BD60682B
:1087A000E2494279895CC9B2FF2911D0FE2908D07B
:1087B00001F022FA63685A79DD4B9100CB58984258
:1087C00001D01120E4E7FF23D8498B545B465B6856
:1087D000414689B28846FE21D4488154002B43D1BA
:1087E00023689B4620235A46D05C4346002B00D189
:1087F000BDE0AB694B4500D9D9E000F00BFF5A460C
:108800002123D05C00F006FFBB199B00984623682B
:1088100043441D00187A00F0FDFE687A00F0FAFE6D
:108820005B469D694D4500D893E053461D0C0023DF
:108830002A003100606801F0E5F9FF22BF19BF008E
:108840005F447D606068B9494379CA542268D2693F
:10885000002A9CD0B74A5B00D318022202219A5505
:1088600001F016FA002093E720202168AA698B46C0
:10887000085C9A42B9D92223CD5C4346002B02D032
:108880004A4500D95EE100F0C5FE212399465B46CA
:108890004A46985C00F0BEFE2900A74800F0FEFFA3
:1088A00001221000BB199B005B44197A5B7A884057
:1088B0009A402900104301F06FF8A04BED009C4650
:1088C00043466544002B00D1E0E05B469B695A4675
:1088D0009A462023D35C02216068984601F086F90D
:1088E0002A000100404600F057FE00230122032128
:1088F000606801F087F9002163688D4A5B799B000D
:1089000099505B464A46023160689D5C01F06EF901
:1089100003218046606801F063F9414602002800A7
:1089200000F03AFE53461D042D0C20235A46D05C1D
:1089300000F056FE21235A46BF19BF00D05C5F44A9
:1089400000F04EFE7D600322606878494379CA5486
:108950007CE7236842464344997A2D044B1E994193
:108960005B46C9B2985802F0D7F92D0C5FE700F0CA
:1089700051FE5A462123D05C00F04CFE2368BD19FD
:108980009846AD00A8444346187A00F043FE43469B
:10899000587A00F03FFE23685B19997A4B4259419F
:1089A0005B46C9B2585902F0B7F900253FE72223C8
:1089B0005A46D55C00F02EFE21239A465B4652466D
:1089C000BF19985C00F026FEBB009846236843441C
:1089D0001F00187A00F01EFE787A00F01BFE0023BC
:1089E0004A463100606801F00DF92900524800F054
:1089F00055FF0123474618005F443A7A290090400A
:108A00007A7AED009340184300F0C6FF009B5B4468
:108A10001F004B4B9C467B686544002B65D05A4633
:108A20002023D35C02216068984601F0DFF82A0019
:108A30000100404600F0B0FD0023012203216068E0
:108A400001F0E0F800216368394A5B799B00995096
:108A50005B4652469D5C0231606801F0C7F8032115
:108A60008046606801F0BCF841460200280000F032
:108A700093FD20235A46D05C00F0B2FD21235A46D4
:108A8000D05C00F0ADFD4B467B605CE75A4620337E
:108A9000D35C31006068984601F0A8F82A00010014
:108AA000404600F079FD002200230321606801F0B8
:108AB000A9F86368310018005D7901F09DF81C4B3E
:108AC000AD00E8504A465B46310060689D5C01F0AD
:108AD0008DF803218046606801F082F8414602006B
:108AE000280000F059FD00251FE75A462033D35CCB
:108AF00031006068984601F079F82A00010040468C
:108B000000F04AFD002200230321606801F07AF89A
:108B10006368310018005D7901F06EF8044BAD0018
:108B2000E85052465B4631009D5C95E7A820002046
:108B3000AC200020FC280020FF3F000004F0014092
:108B400000F0014000F066FD21275B46D85D00F093
:108B500061FD2900304800F0A1FE5A462023D35C75
:108B60000122924610005A469840D35D52469A40E0
:108B70002900104300F010FF5A462023D35C032144
:108B80006068019301F032F831008046606801F0BE
:108B900027F841460200019800F0FEFCA22360681D
:108BA000DB000268D358009ADBB25A4490465A421E
:108BB0005341424652684B4493421CD35B46504655
:108BC000DB5D2900984000F069FE4A4643465A6042
:108BD00003210023606801F015F8280000F048FE2A
:108BE000494663680D4A5B799B00995060680C4A5E
:108BF0004379D6542AE65B460321DF5D00F0F6FF99
:108C000043468246186802F077F851460200380061
:108C100000F0C2FCD9E7C046FF3F0000AC200020B6
:108C2000A8200020F0B54E464546DE465746E0B542
:108C3000914687B005000E1E00D1CFE12323082204
:108C400004689046E35C002B00D00AE100F088FB4A
:108C5000002804D004239846852800D001E101F0C3
:108C600087FF002800D1BCE1FF232122202700211B
:108C70002000E355A3540132A354233AE172237236
:108C800063722260E17522756375E260203000F046
:108C900073FB002800D05AE22000213000F06CFB6A
:108CA000002800D053E22000223000F0CBFC002846
:108CB00000D004E233689A46013300D0D9E07368EB
:108CC0009A4604AB9846534601336BD023232F6852
:108CD000FB5C002B00D03AE1727A41463B610323F2
:108CE000BA750B702B6803929B7D50465A425341D4
:108CF0004B7001239B46434659469970414601F00B
:108D000041FF002800D0D3E153465146FB605B464B
:108D10008B40A021039AC905002A00D120E2D44A41
:108D20008B503800143000F027FB002800D0BFE142
:108D30003800153000F020FB0390002800D0B7E188
:108D4000387D00F067FC787D00F064FC3B7D0121FC
:108D500068689A4600F04AFF8346F86801F0CCFF45
:108D600059460200504600F017FC7B7D02216868DE
:108D70009A4600F03BFF8346F86801F0BDFF594674
:108D80000200504600F008FC0123FB756B680121CE
:108D90005A79B84B52009B18039A28005A70002247
:108DA000FFF764FA3369B44A934200D8DCE159080A
:108DB000914200D8DAE19908914200D8D9E1D90866
:108DC000914200D8D8E11909914200D8D7E1590958
:108DD000914200D8D6E19909914200D8D5E1D9094C
:108DE000914200D8D4E1190A914200D828E15B0AE7
:108DF0000921934200D824E14346424619700023DA
:108E0000537093700333D3706B6841465B79686825
:108E100053609A4A00F03EFE8046002800D0E8E009
:108E20003169686800F028FF01260700A0616868C2
:108E300000F0D2FE04233A0002216868009600F098
:108E4000F5FE0221686800F035FF4B46E3616B6870
:108E50008B4A5B7999008D50FF218A4AD154232394
:108E6000E654404607B03CBC90469946A246AB4605
:108E7000F0BD23232F68FB5C002B68D1327A7B6026
:108E800004AB984603234146BA720B702B680392D9
:108E90009B7A50465A4253414B7001239B464346AE
:108EA00059469970414601F06DFE002800D0FFE060
:108EB000534651463B605B468B40A021039AC9054F
:108EC000002A00D049E1A122D2008B50380008309E
:108ED00000F052FA002800D0EAE03800093000F033
:108EE0004BFA8046002800D0E2E0387A00F092FB8E
:108EF000787A00F08FFB3B7A002168689A4600F090
:108F000075FE8346386801F0F7FE59460200504668
:108F100000F042FB7B7A022168689A4600F066FE08
:108F20008346386801F0E8FE59460200504600F0DA
:108F300033FB01234146FB726B684E4A5B79280084
:108F40005B00995400220021FFF790F9B7E608234F
:108F500098462023F85CFF2800D0ADE02123F85C80
:108F6000FF2801D000F0AAFA2223F85CFF2801D0E4
:108F700000F008FC387AFF2803D000F09FFAFF23A6
:108F80003B72787AFF2803D000F098FAFF237B72B7
:108F90003868431C04D001F05BFE01235B423B6058
:108FA0000023387DFB72FF2803D000F087FAFF23EF
:108FB0003B75787DFF2803D000F080FAFF237B7596
:108FC000F868431C04D001F043FE01235B42FB60C0
:108FD0000023FB75686800F0B3FD42E70B23984659
:108FE0003FE701F099FD002800D13DE603239846B4
:108FF00037E720232C68E05CFF2856D12123E05C72
:10900000FF284FD12223E05CFF283DD1207AFF28A2
:1090100029D1607AFF2821D12068431C18D1002370
:10902000207DE372FF280ED1607DFF2835D1E068F6
:10903000431C2CD10023E375686800F081FD10E724
:109040000821C9B2D8E600F039FAFF232375EBE70F
:1090500001F0FEFD01235B422360E0E700F02EFA01
:10906000FF236372D8E700F029FAFF232372D0E7C9
:109070000C050000FC280020FF0F00000982010001
:10908000A0200020A820002000F07CFBBEE701F01B
:10909000DFFD01235B42E360CCE700F00FFAFF2322
:1090A0006375C4E700F00AFAACE700F007FAA5E739
:1090B00004232F6898464CE700F000FA4EE72C682E
:1090C000E05DFF2801D000F0F9F92123E05CFF28E2
:1090D00001D000F0F3F92223E05CFF2801D000F07A
:1090E00051FB207AFF2803D000F0E8F9FF23237218
:1090F000607AFF2803D000F0E1F9FF236372206853
:10910000431C04D001F0A4FD01235B422360002333
:10911000207DE372FF2803D000F0D0F9FF232375F0
:10912000607DFF2803D000F0C9F9FF236375E06874
:10913000431C04D001F08CFD01235B42E36000235B
:10914000E375686800F0FCFC0423984689E6202358
:109150002C68E05CFF28B8D0B5E70F4A8B50B5E625
:10916000A122D2008B50DCE5002145E60121C9B2E5
:1091700042E60221C9B23FE60321C9B23CE604211E
:10918000C9B239E60521C9B236E60621C9B233E6CD
:109190000721C9B230E6C0460C050000F8B500272B
:1091A0000468050040682B4E43795A00B754E17AB1
:1091B000002935D10027B6187770E27D002A15D135
:1091C000FF21254AD1540368244A934223D0244ADC
:1091D00093423AD0234A934232D000F0FDFC6868B3
:1091E00000F0E6FC23230222E254F8BD2B68E0687D
:1091F000997D4B425941C9B201F08EFDE06801F002
:109200004BFDFF2127616868134A4379D1540368F5
:10921000124A9342DBD10122134B1A606868DCE7E3
:109220002B682068997A4B425941C9B201F074FD0C
:10923000206801F031FD6760686843795A00B9E73A
:1092400001220A4B1A606868C7E70122084B1A60BE
:109250006868C2E7FC280020A820002000800040A9
:109260000090004000A000400C8C00400CAC00407E
:109270000C9C0040F0B5D6464F4646460500C0B5AA
:109280000768406800F09EFC0221686800F012FD4B
:109290002023F85C00F0BEF92123F85C00F0BAF955
:1092A00001239846A023DB059946244B3C00002669
:1092B0009A46E37A002B18D04246296823688C46E8
:1092C0009A4073009B199B0063449B7A002B24D126
:1092D000A1234946DB00CA50206801F0F9FC207A3E
:1092E00000F098F9607A00F095F90C34012E12D153
:1092F0006B68134A1B68934213D0124A934218D0EA
:10930000114A934211D023230122FA541CBC9046E7
:109310009946A246F0BD0126CBE74B4651465A502E
:10932000DAE70022094B1A60EDE70022084B1A60C9
:10933000E9E70022074B1A60E5E7C0460C0500008C
:10934000008000400090004000A000400C8C0040D5
:109350000CAC00400C9C004036DF704737DF704794
:10936000044B1A78002A03D1002001321A7070478A
:109370008520FCE7B8200020F0B557464E46DE4673
:1093800045460423E0B585B09A4602ABDF1D0023B5
:109390009946454B0190454E00259B461EE03800FE
:1093A000FFF7DAFF022850D0002800D06EE0012439
:1093B000AC4026424ED14346012B0AD062B63878E3
:1093C000FFF7CCFF022302009A4364D15346002BDF
:1093D00033D00135A643EDB2002E2ED04B460422E9
:1093E0003B70334B90465B68DB05DB0DD7D0032128
:1093F0000800103B5AB2DBB21840C000002A38DB2C
:109400009208C0322B4B9200D358C3409B0919409D
:109410000124CBB29846AC40330023400129BED191
:10942000002BD6D0204B1B681C42D2D11C431E4BB4
:109430001C60019B1D7000239A46504605B03CBC41
:1094400090469946A246AB46F0BD72B60124AC40A8
:109450002642B0D05B461B682342ACD15A46234318
:109460001360019B1D704346012B19D100239A46BE
:10947000E3E70F221340104A083B94469B089B00E9
:1094800063441B68C3409B091940C1E700220021C7
:1094900000F062FD8BE70022002100F05DFD95E702
:1094A00000239A468AE7C046B4200020FF3F000010
:1094B00000ED00E000E100E01CED00E0012383404E
:1094C00030B59A0483B0002A41D0A1222D49D200A0
:1094D0008B5000226946CA712B4A5268D205D20DC0
:1094E0001BD10425DC436B46D81DFFF735FF02284E
:1094F00046D000283FD1254A13681C401460012D36
:1095000008D062B66B46D879FFF728FF0223020025
:109510009A431ED1002003B030BD03200400103A4E
:1095200051B2D2B21440E400002917DB8908C031DF
:10953000174A89008A58E24092090240D5B2DC43BA
:10954000012AD0D1114A13681C401460E2E70720B9
:10955000E1E70022002100F0FFFCDBE70F210A40D9
:109560000C49083A8C469208920062445268E240E4
:1095700092090240E2E70022002100F0EDFCBAE788
:1095800072B6B8E700F0014000ED00E0B420002022
:1095900000E100E018ED00E010B5002914D0002A29
:1095A00012D0012383409C0410D00A4C24681C4232
:1095B0000ED0094BC0009C46A2236044DB00C15082
:1095C000064BC250002000E00E2010BD0720FCE733
:1095D0000820FAE7B420002000F001401405000044
:1095E000012383409A0B0CD1002B04D100200649A3
:1095F000064A8B507047064A12681A42F6D1082074
:10960000F8E70720F6E7C04600F001400405000037
:10961000B4200020012383409A0B0DD1002B05D1EB
:10962000A12200200549D2008B507047044A1268DD
:109630001A42F5D10820F8E70720F6E700F00140CC
:10964000B4200020F0B557464E46DE46454604237A
:10965000E0B585B09A4602ABDF1D00239946454B25
:109660000190002503269B461EE03800FFF774FE9C
:10967000022850D0002800D06EE00124AC402642E1
:109680004ED14346012B0AD062B63878FFF766FE0A
:10969000022302009A4364D15346002B33D0013594
:1096A000A643EDB2002E2ED04B4604223B70324B27
:1096B00090465B68DB05DB0DD7D003210800103B2B
:1096C0005AB2DBB21840C000002A38DB9208C03220
:1096D0002A4B9200D358C3409B0919400124CBB2B6
:1096E0009846AC40330023400129BED1002BD6D090
:1096F000204B1B781C42D2D11C431E4B1C70019B7B
:109700001D7000239A46504605B03CBC90469946D1
:10971000A246AB46F0BD72B60124AC402642B0D0A2
:109720005B461B781C42ACD15A4623431370019B05
:109730001D704346012B19D100239A46E3E70F22FF
:1097400013400F4A083B94469B089B0063441B68E8
:10975000C3409B091940C1E70022002100F0FCFB37
:109760008BE70022002100F0F7FB95E700239A46E3
:109770008AE7C046B920002000ED00E000E100E0EB
:109780001CED00E00122130003218340F0B583B0FB
:1097900019422CD0314D2E78334225D0304CC000A8
:1097A000A4466044426000226846C2712D4A526855
:1097B000D205D20D26D10427DC436B46D81DFFF716
:1097C000CBFD022815D0002842D134402C70012F47
:1097D00008D062B66B46D879FFF7C0FD02230200BD
:1097E0009A4309D1002000E0082003B0F0BD072013
:1097F000FBE772B62E78E8E70022002100F0ACFB10
:109800000020F2E70C00103A50B2D2B21440E4004B
:10981000002810DB8008C030134A80008258E240E4
:1098200092091140DC43CFB2E3B20129C5D13340E4
:109830002B700020D9E70F2002400C48083A8446DC
:109840009208920062445268E24092091140E9E7AE
:109850000022002100F080FB2E78B6E7B92000201E
:1098600000F0014000ED00E000E100E018ED00E054
:1098700001221300834099070AD0064909780B4258
:1098800004D0054BC000C250002070470820FCE700
:109890000720FAE7B920002000F00140012303224D
:1098A0008B4070B50C0082B01A4230D0354909782F
:1098B0000B4229D0830B9B0329D16946CB71324BD4
:1098C0005B68DB05DB0D26D10426C5436B46D81D3E
:1098D000FFF742FD02281CD000284ED12B4BA400DC
:1098E0009C46802364441B01E0582840E050012E30
:1098F00008D062B66B46D879FFF730FD022302002C
:109900009A4327D1002000E0082002B070BD072054
:10991000FBE772B6E2E71500103B59B2DBB21D401F
:10992000ED0000291CDB8908C031194B8900CB5898
:10993000EB409B091A40D6B2C543012AC6D1134B4E
:10994000A4009C46802364441B01E0582840E0505A
:109950000020DAE70022002100F0FEFA0020D4E720
:109960000F210B400B49083B8C469B089B0063442E
:109970005B68EB409B091A40DDE70022002100F004
:10998000EBFAABE7B920002000ED00E000F0014069
:1099900000E100E018ED00E0012303228B4070B5E8
:1099A000050082B00C001A422FD0354909780B42CD
:1099B00028D0830B9B0328D16946CB71314B0426F9
:1099C0005B68DB05DB0D24D16B46D81DFFF7C4FCBB
:1099D00002281CD000284DD12B4B80229C46A4008D
:1099E00064441201A3581D43A550012E08D062B64D
:1099F0006B46D879FFF7B2FC022302009A4326D1C6
:109A0000002000E0082002B070BD0720FBE772B61E
:109A1000E2E71000103B59B2DBB21840C000002949
:109A20001BDB8908C031194B8900CB58C3409B0907
:109A30001A40D6B2012AC7D1134BA4009C468023FA
:109A400064441B01E25800201543E550DBE7002287
:109A5000002100F081FA0020D5E70F210B400C49CE
:109A6000083B8C469B089B0063445B68C3409B0992
:109A70001A40DEE70022002100F06EFAACE7C04693
:109A8000B920002000ED00E000F0014000E100E01E
:109A900018ED00E0F8B5244E43791700F25C04009D
:109AA0000D00002A3DD1002932D0204B22689A4275
:109AB00035D00420E978205600F0FAFF63791C4A7B
:109AC00069689B009950002F29D01A4A21689F503D
:109AD0000122194F6B78C859134090430343CB516F
:109AE000032123680437D859AB7888430B40216899
:109AF0000343CB510F2123680837D8592B7888436B
:109B00000B40034300202168CB516379F254F8BD28
:109B10000A4DDB00ED182268044B9A42C9D1072098
:109B2000F5E70820F3E7C046BC2000200080004095
:109B3000C8200020C020002004050000E4F101003E
:109B40001F22037970B51A4001231C009440802223
:109B50001349144E8C5000214279134C920011513C
:109B6000026813614479114A056813558024A400E2
:109B70002B5933402B51C223802405689B0064027B
:109B8000EC5080240568A402EC5080240568E402AF
:109B9000EC50802405682403EC504379D15470BD07
:109BA00000E100E0F0F0FFFFC0200020BC2000201A
:109BB0000122022103681A604379014AD154704797
:109BC000BC200020012302680249136142798B54B2
:109BD0007047C046BC20002001220368DA6070474D
:109BE000103100688900C9B24018704750310068D0
:109BF000890089B24018704751310368FF318900EC
:109C0000C858704730B5802464028C400568002B2A
:109C100008D1C2239B00EC5051310368FF31890009
:109C2000CA5030BDC1239B00EC50F5E7F0B50227C8
:109C300005AC2478FF37A44680248F400668A40032
:109C40003559BD43355105682E5933432B51802377
:109C500064465B028B40002C09D1C2240568A40035
:109C60002B5151310368FF318900CA50F0BDC12426
:109C70000568A4002B51F4E7A2230268DB00D25848
:109C80008020FF2380001340D8404843400970479C
:109C90000B0002685033944600229B009BB2634441
:109CA0001A608023C1225B028B40006892008350BF
:109CB0007047C0468023C2225B028B40006892003E
:109CC00083507047F0B5C646104B0025984600B546
:109CD0000F4C104E104F114BE018236880B2002B30
:109CE0000DD0C1239B00F25880235B02AB401A4287
:109CF00005D000232360434619683B689847013527
:109D00000434042DE7D104BC9046F0BDC8200020E7
:109D10004081004000800040C02000200080FFFF04
:109D2000F0B5C646114B0025984600B5104C114EB3
:109D3000114FE023DB01E018236880B2002B0DD027
:109D4000C1239B00F25880235B02AB401A4205D02E
:109D500000232360434659687B68984701350434E3
:109D6000042DE6D104BC9046F0BDC046C8200020BA
:109D70004091004000900040C0200020F0B54F46C8
:109D8000D6464646C0B5214B1978994600292AD0B7
:109D90001F4B002498461F4B1F4F01269A4603E095
:109DA0000134E4B28C421ED243461B6832009C460A
:109DB000E500654428783B6882401A42F0D093431E
:109DC0003B6001F0DFF832002B7851469A40096879
:109DD0000A40010099408A420AD04B460134197862
:109DE000E4B28C42E0D31CBC90469946A246F0BD3A
:109DF000697801394A425141091A484241416A6829
:109E0000C9B2002AE9D018009047E6E7D020002028
:109E100000210020F8200020FC200020F8B5124D81
:109E20000700280000F0EAFC002807D10124BC400C
:109E30000E4E33681C4202D0A3433360F8BD380095
:109E400001F0A0F80A4A136800280BD023431360DE
:109E5000336800221C43074B28001968346000F067
:109E60004DFCEBE7A343F2E7D8200020FC200020C4
:109E7000F8200020D4200020F0B54746CE4680B51B
:109E80000D00070083B014000720042A2CD900F02D
:109E90006FFE002833D01C4B1C4A1F601C4B1D70EA
:109EA0001C4B1C60002313601B4A6C1E1360E4B241
:109EB000002D1ED0194BE400994603233C1901AD37
:109EC000083F9846002602E0083CBC4211D04346B9
:109ED0002B70A37820784A462900AE70EE706B7024
:109EE00000F034FF0028EFD003B00CBC9046994638
:109EF000F0BD0B4A00210B4800F0EAFBF4E700F04C
:109F00000BFE0028C7D0EFE700210020F82000203A
:109F1000D0200020D4200020FC2000201D9E010025
:109F20007D9D0100F4F1010070B5094D2B78002BE7
:109F30000BD00024074E3268E300985C012100F04A
:109F4000C1FF2B780134A342F5D8002070BDC04674
:109F5000D020002000210020BFF34F8F024B034A86
:109F6000DA60BFF34F8FFEE700ED00E00400FA0572
:109F700000290CD0002A08D0531E1A4005D1826057
:109F800001608380C260002070470920FCE70E203A
:109F9000FAE7C04610B584688288C3681B1B9A42E2
:109FA00008D3C36813400268D154C3680133C36047
:109FB000002010BD0420FCE78268C3689A420AD0E2
:109FC0008368828813400268D35C0B708368013316
:109FD0008360002070470520FCE7C046A021F0B553
:109FE0000023C6462C4A490000B553500431535053
:109FF00004315350043153504C39535004315350B1
:10A00000264B1B68002B37D0254900265458254A7B
:10A01000254F1268A41A00222402240A904602E066
:10A02000002D1AD02B001A68A24216D8A41AB6180E
:10A030001A7CDD69002AF3D0424699691A745A697C
:10A040003B68002B21D0100098470028E8D0002260
:10A050000021FFF781FF002DE4D11449144A0B7849
:10A0600012789A420BD0134A9B009E508021802385
:10A07000114A5B004903D15004BC9046F0BD013247
:10A08000D3B2022B04D00B70EDE708009047C7E76E
:10A0900000230B70E7E7C04600100140202100209C
:10A0A00004050000182100200421002015210020B3
:10A0B000142100200C21002000E100E0F0B55746FB
:10A0C000DE464E464546E0B5A24BA34A1B68A3496F
:10A0D0009A46097813788BB0994200D11DE101337B
:10A0E000DBB2022B00D116E113709D4A9B009B58F6
:10A0F000984A9C46534663441B021B0A089313600C
:10A1000001239946974B00261968974B06911A78B8
:10A11000964B90461B6802920593954B1B780193D2
:10A120000023079304930393924B09934346013B07
:10A13000DBB29846FF2B50D04346DD00059B9B4683
:10A140005D442B786F78BB42F0D06A685800C01825
:10A1500093460133AA78DBB2D21A541EA241C00042
:10A160005242584413400278022A0BD0032AEAD103
:10A170000029E8D00E74C9690029FBD101226F784B
:10A180000392E0E744680029DDD008008C4201D149
:10A1900012E01000C269002AD5D09442F9D184425D
:10A1A0000BD0E2692768C261002A03D01068834699
:10A1B0005F4417606F78C6E70C000122C9690392FB
:10A1C0000029EED10127099A97600122019704978F
:10A1D0000027079208970392E3E7039B002B00D028
:10A1E000B3E1049B002B02D05A4B089A1A60079BDC
:10A1F000002B02D05E4B019A1A704B46002B00D008
:10A2000013E100245A4B069E1B7800270493514B00
:10A210001B68984600239B46574B9A460123994654
:10A22000029B013BDBB20293FF2B00D1AEE0059A0B
:10A23000DB0094469C44002C24D06268A168200076
:10A24000E4694346D31A1B021B0A534550D84A46B9
:10A250005B180360476087600274C761002E56D0A8
:10A26000326835009A4204D367E00A689A426BD29A
:10A270000D00E9699B1A0029F7D10360C161E8610B
:10A28000002CDAD1634660461A78597801949142DD
:10A2900074D045685300AC469B1885780132DB00CA
:10A2A000D2B263440270954201D1002207701D783A
:10A2B000012DECD15D682C7CA446002CE7D16246D0
:10A2C00084462800019C01929A686A60D968A96056
:10A2D0001D69C5605B698361049B002BB1D0019B44
:10A2E000002243604346D31A1B021B0A5345AED9D2
:10A2F00043469A1A1202120A8A4214D28B1A4A460A
:10A300000360476087600274C761002EA8D10123F3
:10A3100006009B468FE70023E6E65346089300239A
:10A320009C469946EEE64B4607604760876003749B
:10A33000C761002EEBD000233268D31A33600123AB
:10A34000C6619B46060076E7D21A0A600360C161C7
:10A35000E86195E718210020142100201521002034
:10A360000C210020202100201C210020242100207D
:10A370000821002000100140FEFF7F00029B019C8D
:10A38000013BDBB20293FF2B00D050E75B46002B72
:10A3900000D0D2E0039B002B3DD0069B002B00D1C8
:10A3A00097E0734A7348744C815842468A1A1202E5
:10A3B0002578120A1B680332002D00D15DE093421C
:10A3C00000D21300A82443446A481B021B0AE4007D
:10A3D000674D035142595B1A521A1202120A1B02AC
:10A3E00003321B0A9A4216D9435903512F200138D0
:10A3F000C046C046C046C046C046C046C046C0462D
:10A40000C046C046C046C046F1D1802380215B4A89
:10A410005B008902D1500023594A13700BB03CBC39
:10A4200090469946A246AB46F0BD00246546069B81
:10A43000A4460021002200264C4614E01868A842D9
:10A440003CD82D1A1218D8681E60DF69002808D081
:10A45000514689180902090A596061469C4698606C
:10A46000D96121003B00002BE8D1A14664460029B8
:10A4700000D075E04B460393C4E68025D1266D02DB
:10A48000B6008551403E8551C02780263B4DB6021F
:10A490007F00EE512E60012505602F200138C04657
:10A4A000C046C046C046C046C046C046C046C0467C
:10A4B000C046C046C046F1D1257080E7A14664463B
:10A4C000AC46002950D16246801A18604B4603936F
:10A4D00098E680218023294A8902D1508022D22106
:10A4E000244B520289005A5040395A5001222F20E1
:10A4F0005A600138C046C046C046C046C046C04645
:10A50000C046C046C046C046C046C046F1D19A606B
:10A51000069A1C4B2F201A600138C046C046C04620
:10A52000C046C046C046C046C046C046C046C046FB
:10A53000C046F1D1104B1A706DE7134B1E60069B9D
:10A540009E4200D126E7069627E70F4B1960069B2F
:10A5500006915B1A1A00531E9A41D3B2039340E648
:10A56000094A0693136085E7074A06931360AAE732
:10A5700004050000001001400921002000E100E076
:10A58000082100201821002020210020F0B5474696
:10A5900098460323CE461C0080B58146144000D067
:10A5A00078E0002A00D177E0802680203C4DB6027A
:10A5B0002E50D22780203B4E4002BF00F051403F3A
:10A5C000F0510120844670602E300138C046C046EC
:10A5D000C046C046C046C046C046C046C046C0464B
:10A5E000C046C046F1D16046B0602F488446046042
:10A5F0002F200138C046C046C046C046C046C046AF
:10A60000C046C046C046C046C046C046F1D14746D7
:10A61000264891700470264814800760254800275A
:10A620000370254B48001A6013004018C00018330F
:10A6300053601B18D3601B185361204B91721C6030
:10A640001F4B91741F701F4B148114821F70802246
:10A65000C023C521FF2052035B00EA5089006B58DC
:10A6600083433F3803436B50A1232A604A46DB00F3
:10A67000F25004396B58144A00201A40C0231B02C0
:10A68000134362466B50114BF35813600CBC904659
:10A690009946F0BD0720F9E7074B07201A60F5E758
:10A6A00000E100E0001001401821002009210020F5
:10A6B000042100201C210020242100202021002032
:10A6C0001421002015210020FF00FFFF04050000D9
:10A6D000094B1B68002B0AD0002A0AD0002808D09A
:10A6E0000368187C002802D159745A617047082009
:10A6F000FCE70720FAE7C04624210020F0B5CE464B
:10A70000474680B5374B1B68002B2FD000282DD033
:10A71000042926D94469002C28D00025447CA94668
:10A72000012C00D18946304C6468E405E40D1FD04B
:10A7300003263500103C67B2E4B22540ED00AC467C
:10A74000002F3EDBBF08C037284CBF003C59EC400F
:10A75000A4092640F6B2012E0BD0032E08D10833EF
:10A7600007E007200CBC90469946F0BD0820F9E7A9
:10A7700010335F789C787E1CF6B2A41B651EAC413A
:10A78000644226401C78B44229D07C00E4195F68FA
:10A79000E400BC466444002C21D00127606027708F
:10A7A0001348144F3858E1604946A0602161626146
:10A7B00080215E7080230D4A5B004903D150002048
:10A7C000D0E70F270C4D3C40A8466546083CA4083E
:10A7D000A40044446468EC40A4092640BAE704207D
:10A7E000C0E7C0462421002000ED00E000E100E0C9
:10A7F000040500000010014018ED00E030B52D4BBD
:10A800001B68002B44D0002842D04269002A3FD068
:10A8100000220274284A5268D205D20D17D00321B3
:10A820000D00103A54B2D2B21540ED00002C31DBCD
:10A83000A408C034214AA400A258EA409209114059
:10A84000C9B2012904D0032901D1083300E0103333
:10A850005C789A78611CC9B2521A551EAA415242BC
:10A8600011401A788A4222D0620012195C68D20024
:10A87000A4466244002A1AD0022450601470597011
:10A880008023802100200D4A5B004903D15030BD58
:10A890000820FCE70F242240094C083AA4469208FD
:10A8A000920062445268EA4092091140C8E70420CD
:10A8B000EDE7C0462421002000ED00E000E100E0CB
:10A8C00018ED00E070B5161E07DD0C008D1820781D
:10A8D000013400F0D9F8AC42F9D1300070BDC04667
:10A8E00010B50C00200000F0B5F80528FAD00120C2
:10A8F00010BDC04630B5047885B0012C22D0022CA2
:10A900000AD102AB1C70C36802A801930393234BC6
:10A910001B68984705B030BD002CFBD1204D214C61
:10A9200029002000FFF748FB002831D0A268E36827
:10A930009A42EFD1032302AA1370184B10001B6830
:10A940009847E7E74368184D19782800FFF722FB7E
:10A95000002811D002AB1C70104B03901B6802A89A
:10A960009847AA68EB689B1AAA889342D2D801211B
:10A970000E4800F081FDCDE7AA68EB689B1A012B19
:10A98000EFD102AB1870054B02A81B689847E8E7A7
:10A990000121280000F018FDC8E7C046282100204A
:10A9A000502100203C2100202C2100204C2100209F
:10A9B000F0B51E00214B89B005000C1E1A603AD07C
:10A9C0008A881F480968FFF7D3FA002801D009B028
:10A9D000F0BDA289A1681B48FFF7CAFA0028F6D18A
:10A9E00068460200184B92CB92C292CB92C212CB15
:10A9F00012C2AB6883612B7906775A1E93410375A7
:10AA00006B795A1E93410E225B4213404375EB78DB
:10AA10008360AB78C3602B7843606B7800930B49FD
:10AA200000F04CFC0028D2D100F09AFD012108482A
:10AA300000F022FDCBE70720C9E7C046282100200F
:10AA40002C2100203C210020F8F10100F5A8010094
:10AA50004C21002070B50A4C0500A168A288E3686B
:10AA60005B1A9A4204D029002000FFF7A5FA70BDB6
:10AA70000121044800F000FD0028F4D00520F6E78D
:10AA80002C2100204C21002010B504000648012193
:10AA9000047000F099FC112800D010BD210003487B
:10AAA000FFF778FAF9E7C046512100203C21002049
:10AAB000FF22032330B51400C5B22B40DB009C40BD
:10AAC00089010A40E4439A40002814DB104B8008B7
:10AAD0009C46C023800060449B00C1580C40224328
:10AAE000C2501F23C0211D401E3BAB40084A4900F5
:10AAF0005350136030BD0F2306492B408C46083B52
:10AB00009B089B006344D9690C402243DA61E8E763
:10AB100000E100E000ED00E070B54425124C635DFB
:10AB2000002B1FD1013B23606360A360E3602361BE
:10AB30006361A361E36123626362A362E3622363EF
:10AB40006363A363E363236403210620FFF7B0FF7D
:10AB5000C1238021054A9B000906D1500123002012
:10AB6000635570BD0820FCE75421002000600040C0
:10AB70004423034AD05C431E9841C0B27047C0468C
:10AB800054210020F0B500252D4C0300221820325E
:10AB90005557082001350FD1887800280DD022683C
:10ABA000013246D06268013245D0A268013244D0F9
:10ABB000E2680420013218D0F0BDFE20107001229E
:10ABC000A02049789A40C00501290AD01D49425069
:10ABD000A0220321C133FF339B00D20599500020EE
:10ABE000EAE7A121C9004250F2E70138E218164D08
:10ABF00020321070AC460022A2258000ED002250C9
:10AC000060444659114F0A783E40C0271204BF02E3
:10AC10003A4080274C787F0324053C40F827465172
:10AC200022437F011C0246593C4022433243425199
:10AC3000C5E70020DAE70120D8E70220D6E7C046C2
:10AC4000542100200C05000000600040FFE0ECFFF4
:10AC500010B50F4B1A182032127852B2D1B2032914
:10AC600009D80124890064425C5000244532FF3237
:10AC7000084992005450FF221B1820331A70A02359
:10AC8000C130FF308000DB05FD3AC25010BDC04628
:10AC900054210020006000400A4B0B4A1818202362
:10ACA0009446A222032110B5C356D2009B006344F0
:10ACB0009C580648214320439850C046C046C04691
:10ACC000995010BD5421002000600040031F000077
:10ACD000074B084A181820239446A221C356032084
:10ACE0009B006344C9005A5882435A507047C0467B
:10ACF0005421002000600040054B1818054B2030FF
:10AD00009C46007840B28000C0B260447047C046A4
:10AD10005421002000600040094B10B51818202372
:10AD2000084AC3569446A2204C1EA1419B0063448E
:10AD3000C0001A58044C090522401143195010BD97
:10AD40005421002000600040FFFFEFFFF0B5CE4629
:10AD5000474680B5584B91461D1820352E7808245B
:10AD60007F2E3DD9CF78002F3FD11A69013200D113
:10AD700099E005240826A5005A5901325AD0621CD0
:10AD8000950094465A59013200D18AE0A21C94469B
:10AD9000B24224D295005A59013200D181E0E21C1E
:10ADA0009446B2421BD295005A59013200D178E044
:10ADB000221D9446B24212D295005A59013200D156
:10ADC0006FE0651DB5420AD2AA009A58013200D13F
:10ADD0006FE00634B44202D2DA69013228D004248A
:10ADE00020000CBC90469946F0BD1A680124042648
:10ADF0000132C0D100264A462E701A608A78002A95
:10AE00002AD0A024E405A446E0250227820062445B
:10AE1000ED005459BC4354510A78C978002928D10F
:10AE20009B193C33197892010A431A700024D7E722
:10AE300007241C251A18944620229046C4446246D2
:10AE400066B216704A465A51002FD7D11C193C34AD
:10AE500020708A78002AD4D10200A0254C78C13213
:10AE6000FF329200A400ED0554510A78C9780029F8
:10AE7000D6D01249B3008C46A2216344C9005C5865
:10AE80000F4D00022C40F8256D012840C0255C5074
:10AE90001204AD025C582A4010432043585000244D
:10AEA0009EE76446C6E704244A462C701A610426CD
:10AEB000CCE72C00AD00BDE754210020006000402D
:10AEC000FFE0FCFF0023F0B52B4C22182032D356B4
:10AED000032B1FDDE3183C331B789B09032B3AD06F
:10AEE000013B5A1E934180225B4252021340802252
:10AEF000920294466344A022D2059446E022800048
:10AF00006044D20081581D4C2140815081580B4330
:10AF10008350F0BDD8B20328FBD8194DA227AC4608
:10AF2000012698006044FF00C5593543C5511800FB
:10AF3000654600274030800080B247510029E8D0A4
:10AF4000127852B292001259002AE2D09E40C123D8
:10AF50009B00EE50DDE7A022A223D205DB00D358F0
:10AF60000122824013405A425341C0229202944629
:10AF70005B421B046344BEE754210020FFFFFCFF3B
:10AF800000600040A022A223D205DB00D358C340BA
:10AF9000012018407047C046F0B5D6464F46464699
:10AFA000C0B5BE4A00251368012B00D110E1BC4B8F
:10AFB0001A68012A00D1FFE0BA4B1A68012A00D1B1
:10AFC000EEE0B94B1A68012A0FD00022B74B924627
:10AFD0001B68012B00D1D6E02B0717D1002D32DBE7
:10AFE0001CBC90469946A246F0BDC122B0499200D1
:10AFF000895808220A42E8D000211960AB4B15435A
:10B000001B68012B00D1BEE000239A46032399461A
:10B01000A84BA227012600249846FF0035420CD0F9
:10B02000A34AA3009A18D059D1594A46090C114095
:10B030004246C004C00E9B58984701347600042C49
:10B04000ECD1002DCCDA40239A4CE1564B1C1FD09A
:10B05000C9B2C02308009843231820331B785BB281
:10B060009B00E558002D13D0A0230126DB059C464C
:10B07000E0238640574682006244DB00D3588909AA
:10B080009B039B0F374200D0B4E0032B00D1C5E0F7
:10B090004123E1564B1C1FD0C9B2C023080098437E
:10B0A000231820331B785BB29B00E558002D13D08A
:10B0B000A0230126DB059C46E023864057468200FC
:10B0C0006244DB00D35889099B039B0F374200D0B1
:10B0D0009DE0032B00D1B2E04223E1564B1C1ED071
:10B0E000C9B2C02308009843231820331B785BB2F1
:10B0F0009B00E558002D12D0A0230126DB059C46BD
:10B10000E0238640574682006244DB00D358890919
:10B110009B039B0F374274D1032B00D1A0E0432344
:10B12000E1564B1C00D15BE7C9B2C023080098432D
:10B13000231820331B785BB29B00E558002D00D10B
:10B140004EE7A0230124DB059C46E02384405646BD
:10B1500082006244DB00D35889099B039B0F26427F
:10B1600040D1032B00D03BE703290AD18027BF023F
:10B17000E023DB00D658504C2640D650D4583C43F0
:10B18000D450A8472CE70022484B1A6080231B06A6
:10B190001D43A022A223D205DB00D3589A461BE709
:10B1A000C12243499200895804220A4200D108E78B
:10B1B00000211543196004E7C1223D4992008958D6
:10B1C00002220A4200D1F7E6002115431960F3E696
:10B1D000C1213748890045581D4000D1E7E60023CA
:10B1E0001360E4E6022B00D0FAE60329C9D1C02798
:10B1F000BF02BDE7022B00D04AE7032949D0A84788
:10B2000046E7022B8BD103293FD0A84787E7022BC3
:10B2100000D061E7032934D0A8475DE70329EED1C8
:10B2200080239B029846E023DB00D758224E37400C
:10B230004646D750D7583E43D650A84728E703295B
:10B24000EAD180239B029846E023DB00D7581A4EB0
:10B2500037404646D750D7583E43D650A8473BE7DD
:10B260000329D2D180239B029846E023DB00D758E4
:10B27000114E37404646D750D7583E43D650A84780
:10B280004DE7C0239B029846DEE7C0239B02984609
:10B29000EBE7C0239B029846C5E7C046006100402B
:10B2A00004610040086100400C6100407C61004086
:10B2B0000060004054210020FFFFFCFFF0B5D6469F
:10B2C0004F464646C0B5384CA37D002B69D10028B7
:10B2D00064D00368A0220325C133FF33D2059B004D
:10B2E0009D500123AA460568AB40A125ED005351AE
:10B2F000A94600254368AC46C133FF339B009D50EF
:10B3000086692A4B2A4D5E51067D457D3543294E7F
:10B310009D5145680668A846274D5E514646274D13
:10B320005E51057D012D1AD186683700E026760032
:10B33000B0464744BE006746B750C137FF37B846EE
:10B340005746C6684644B600B750C668B5404E4634
:10B350009551C26885689A51A222D2009D50036916
:10B3600061602360002908D0C123017F0F4A14487F
:10B370009B00D0500220FFF79BFBA02304210B4A27
:10B38000DB00D150002363820133A375002300202A
:10B3900063751CBC90469946A246F0BD0923094836
:10B3A00098E70820F5E7C0469C21002000200040D7
:10B3B000240500006C0500000C05000014050000C9
:10B3C0008000020018F20100F0B5254A937C002BA2
:10B3D00031D101259174234C2349138290600B6075
:10B3E00025600B60138A214EC05C138A204D013307
:10B3F0009BB21382705153680020002B00D0F0BD27
:10B40000802000274000947C138A9C4203D814E0DB
:10B41000138A834202D00B68002BF9D0138A83422F
:10B42000F2D00F60138A9468E45C138A01339BB2F4
:10B4300013827451E7E71120E1E78023118A5B0052
:10B4400099420AD008490B68002BFCD0012100204A
:10B45000084B196000239374D1E70F20FAE7C04628
:10B460009C210020082000401C21004000200040BA
:10B470001C0500000C200040F0B5C64600B5324B5C
:10B48000DA7C002A59D11A755A7DD974D860002AFD
:10B4900006D12E490A602E490A6001212D4A116009
:10B4A0005A68002A09D0C12381210020294A9B0023
:10B4B0008900D15004BC9046F0BD264A234D9446E5
:10B4C000A322D20090462248234E2C68016832689D
:10B4D00000290ED1002A29D000211F4801601B48F5
:10B4E0000160D97403208C42E4D10C30002AE1D1F0
:10B4F00014E011002143EFD14746644601601A7DF4
:10B50000E459DF68BC541A7DDC7C0132D2B21A7572
:10B510001A7D9442D9D831602960D9745B7D002BA3
:10B520000DD001220B4B00201A60C3E7002CCCD0B9
:10B53000326003202A60DA74BCE71120BAE70122E6
:10B54000064B00201A60B5E79C2100202421004012
:10B550000821004000200040442100400420004019
:10B56000064A537D002B07D105490B6005490B6046
:10B57000054901330B6053757047C0469C2100207C
:10B58000242100400821004000200040C12210B5C5
:10B59000504B92009A5884B092055AD54E4A116881
:10B5A000002956D000211160C22281219200890019
:10B5B00099504A4B5A7D002A02D10121484A116014
:10B5C000022269460A7090214248C90042584250FE
:10B5D00069460392DA7C68460A72DA681968019251
:10B5E0000022DA745B6898473E4A1368002B12D039
:10B5F0003A4B188A997C81425FD80020106000295C
:10B6000009D06A46107011729A689874196801928C
:10B610005B6868469847344B1A68002A17D00022A6
:10B620001A602E4B5A7D002A02D00121294A11604E
:10B63000DA7C002A0BD068461A7D01210272DA6892
:10B640000170019200221968DA745B68984704B0AF
:10B6500010BDC1231F4A9B00D3585B07C4D5234BA1
:10B6600019680029C0D00021A32419601B4BE400F5
:10B67000187DD96812590A541A7DD87C0132D2B289
:10B680001A751A7D9042AFD15A7D002A02D101204D
:10B69000134A1060C22281240E489200A4008450F4
:10B6A0006C461A7D01202272002220700191DA740A
:10B6B000196868465B68984796E7002111601A8A06
:10B6C0009968895C1A8A013292B21A82014A084B3F
:10B6D000D150A0E700200040242100409C21002000
:10B6E000042000401C21004044210040082100406B
:10B6F0001C050000074B1B685B0706D5002806D019
:10B70000054B5B780360002070470820FCE70E20A3
:10B71000FAE7C04680220020B42100208021A02228
:10B72000090410B50C00A120044BD205D358C00069
:10B730009C430B4002491450535010BD04050000B7
:10B740000C050000F8B5CE464746040080B5112828
:10B7500009D0122839D0132839D0142839D00CBC7C
:10B7600090469946F8BD0025012911D000291FD027
:10B770000229F4D16B005B191F4DED186E78002E75
:10B78000EDD01E4B1B68002BE9D030009847E6E750
:10B79000194F6B0098465B19FE5CFB185B78002B19
:10B7A00019D143465B19FF18BA78154B5A55E6E78D
:10B7B0001448FFF723F86A000F4B52199B189E7824
:10B7C0000F4B5B5DB342CAD1D9E70125CCE7022517
:10B7D000CAE70325C8E70C4B0A4899460B4B4A4673
:10B7E0001B689900C9184900FEF788FF0028D8D1C6
:10B7F0004B461C70D5E7C046D02200200023002015
:10B8000008230020B022002084220020AC22002047
:10B81000F8B5C94B1B68DB0700D4F8BDC74A1478DC
:10B82000172CFAD8C649A300CB589F468021A022E6
:10B83000C9030C00A120C34BD205D358C0009C43C0
:10B840000B40C14914505350C04B00221B68C048E4
:10B850009900C918FEF752FFDFE7A023F021BA4A8A
:10B86000DB05490499500021043A9950D5E780211D
:10B87000A022C9030C00A120B24BD205D358C000AE
:10B880009C430B40B04914505350B04B00221968F0
:10B89000AF48FEF733FFC0E7AE4BA1201968E023A5
:10B8A0005B048B43A0210026C905C000A64C0B50A9
:10B8B000A44B0E51CD58F0235B046B408025AD03A3
:10B8C0002B4000D131E10D5008200E51032313709D
:10B8D0009E4B0022196841439D48FEF70FFF9CE7ED
:10B8E0009C4BA1201968E0235B048B43A021002618
:10B8F000C905C000944C0B50924B0E51CD58F0230B
:10B900005B046B408025AD032B4000D108E10D5056
:10B9100004230E512820DAE7A023A122E021DB0531
:10B92000D20049048024995000218748A40319506B
:10B930001C50995071E7884D2800FEF75FFF1123D6
:10B940001C1B00D1D0E0002800D0CDE08023814E28
:10B950001B043360012C0FD0C8306421604302F017
:10B960004FFC7A4B0022196841432800FEF7C6FEBF
:10B97000F022336852041340A0227349D205535079
:10B98000A1230021DB00D15047E7724BA1211A68A7
:10B99000F0235B049343A022C900D2055350002139
:10B9A000694BD15039E76B4BA1201968E0235B0448
:10B9B0008B43A0210027C905C000634D0B50614B8C
:10B9C0004F51CE58F0235B0473408026B6033340BA
:10B9D00000D198E00E504F51A11E4B1E99414B4291
:10B9E000162119401231594B14701B68002259431B
:10B9F0005748FEF783FE10E7A023A122C021DB05F4
:10BA0000D2004904C024995000214F48E403195042
:10BA10001C50995001E7A023A122D021DB05D200C0
:10BA200049048024995000214748E40319501C50D0
:10BA30009950F2E6A023A122F021DB05D2004904AF
:10BA400099500021404A9950E7E6E022414B5204C8
:10BA50001B68A1219A43A023C900DB0580245A500A
:10BA600000223948A4031A501C505A50D5E6394BCD
:10BA7000A1201968E0235B048B43A0210026C9059F
:10BA8000C000314C0B502F4B0E51CD58F0235B04AE
:10BA90006B408025AD032B403FD00D500E51052348
:10BAA00013702A4B0022196829484900FEF726FE28
:10BAB000B3E6284BA1201968E0235B048B43A02147
:10BAC0000026C905C000204C0B501E4B0E51CD580E
:10BAD000F0235B046B408025AD032B4029D00D5033
:10BAE0000E5106231370D0E6F0231A4A5B04116846
:10BAF000A1200B40A021C000C9050B500023124813
:10BB00000B50136089E64E510B50A11E4B1E9941FC
:10BB10004B4202211940023165E70D510B50BEE73F
:10BB20000D510B5004200423D1E60D510B5002207F
:10BB3000CCE60D510B50D4E7DC220020042300207A
:10BB400038F20100040500000C050000AC220020C2
:10BB5000E0220020882200208C22002010B50378EB
:10BB6000112B15D0122B15D0132B03D00322142B1D
:10BB700001D010BD022253009A18074B9B18587829
:10BB80000028F6D0054B1B68002BF2D09847F0E751
:10BB90000022F0E70122EEE7D0220020002300205F
:10BBA000002303280DD8A022A223D205DB00D258FF
:10BBB000054B8000C0580123834093435A1E934194
:10BBC000DBB200200B70704720F3010070B5DE4B34
:10BBD00004001B680020DB0700D470BD172CFCD8C4
:10BBE000DA4AA300D3589F468021A022C9030C0043
:10BBF000A120D74BD205D358C0009C430B40D54958
:10BC000014505350D44B00221B68D4489900C918D3
:10BC1000FEF774FDE1E78021A022C9030C00A120FA
:10BC2000CB4BD205D358C0009C430B40C94914509C
:10BC30005350C94B00221968C848FEF75FFDCCE796
:10BC4000C74D2800FEF7DAFD11231C1B00D156E179
:10BC5000002800D053E18023C24E1B043360012C26
:10BC60000FD0C8306421604302F0CAFABA4B0022F8
:10BC7000196841432800FEF741FDF0223368520461
:10BC80001340A022B349D2055350A1230021DB0069
:10BC9000D150A2E7A023A122F021DB05D200490464
:10BCA00099500021AB4A002099501222AE4B1A70D5
:10BCB00093E7A023A122E021DB05D20049048024E0
:10BCC00099500021A348A40319501C5099501322E5
:10BCD000A54B00201A7080E7A023F0219D4ADB05C8
:10BCE000490499500021043A99509F4B00201C7040
:10BCF00073E79C4BA1211A68F0235B049343A022B5
:10BD0000C900D20553500023924900205350964A4F
:10BD1000137062E7934BA1211A68E0235B049343FD
:10BD2000A0220026D205C9008A485350884B1650DD
:10BD3000D558F0235B046B408025AD032B4000D128
:10BD4000F7E05550A11E4B1E99414B421621194058
:10BD500016501231844B00221C707F4B7F481B68A9
:10BD60005943FEF7CBFC38E7A023F021794ADB05E5
:10BD7000490499500021043A99500C227A4B002032
:10BD80001A702AE7774BA1211A68E0235B049343DA
:10BD9000A0220025D205C9006E4853506C4B1550A7
:10BDA000D458F0235B0463408024A403234000D1D3
:10BDB000B4E054501550082003226B4B1A70664BA8
:10BDC0000022196841436548FEF798FC05E7654B7A
:10BDD000A1211A68E0235B049343A0220025D20529
:10BDE000C9005C4853505A4B1550D458F0235B049B
:10BDF00063408024A403234000D196E054501550A2
:10BE00002820594B0422D9E7E022564B52041B68E4
:10BE1000A1219A43A023C900DB0580245A500022A7
:10BE20004C48A4031A501C505A504F4B07321A70FA
:10BE30000020D2E64B4BA1211A68E0235B04934318
:10BE4000A0220025D205C90042485350404B15504E
:10BE5000D458F0235B0463408024A403234061D0C2
:10BE6000545015500522404B3C481A703A4B002262
:10BE700019684900FEF742FCAFE63A4BA1211A6867
:10BE8000E0235B049343A0220025D205C90031487A
:10BE900053502F4B1550D458F0235B04634080243B
:10BEA000A403234062D05450155006222E4B1A7022
:10BEB000BFE6A023A122D021DB05D20049048024C3
:10BEC000995000212348E40319501C509950142222
:10BED000254B00201A7080E6A023A122C021DB059B
:10BEE000D2004904C024995000211A48E403195093
:10BEF0001C50995015221C4B00201A706DE6F0233F
:10BF0000184A5B041168A1240B40A021E400C90574
:10BF10000B5100230F4C0B5113605EE6145053502D
:10BF2000022049E7145053509CE71450535004200A
:10BF300067E715505350A11E4B1E99414B420221F9
:10BF40001940023106E7C046DC22002098F20100C9
:10BF5000040500000C050000AC220020E0220020B7
:10BF60008C220020882200200423002014505350EB
:10BF70009BE7C046294B10B51960294B0124186076
:10BF8000284B04401A600223184012D00D22264B81
:10BF900026481A700132DA7001329A7101325A72EF
:10BFA0004A080421FDF768FF00281CD0002C19D096
:10BFB00024E0002C0AD0A023F022A121DB055204AA
:10BFC000C9005A501A4958500C315A50194A002188
:10BFD0001948FEF77DFB002804D1184A01211848B2
:10BFE000FEF776FB10BDFDF79FFF0028DED1154A56
:10BFF00000211548FEF76CFB002C0BD0A023F0228B
:10C00000A1210024DB055204C9005A5008495C50A4
:10C010000C315A500028E5D1D8E7C046AC220020A8
:10C02000DC22002000230020D0220020F8F20100B2
:10C030000C05000011B8010030F301001DB701002C
:10C0400018F301005DBB01001CF30100032807D8B1
:10C05000012A07D001290BD0002916D002290DD0C2
:10C060000720704700220129F4D102000D32D2B21C
:10C0700043001818084BC2540020F2E743001B1875
:10C080000548C01842700020EBE743001B18024827
:10C09000C01882700020E4E7D0220020E0231D4A6F
:10C0A000DB00D2580123034001D0C0239B021A4970
:10C0B0000A401343E0221749D2008B50174B9A587D
:10C0C0000223034001D0C0239B0213490A401343BB
:10C0D000E0221249D2008B50114B9A58042303409E
:10C0E00001D0C0239B020C490A401343E0220C49B3
:10C0F000D2008B500B4B9A580823184001D0C02017
:10C100008002054B13401843E023064ADB00D05061
:10C110000020704744000050FFFFFCFF4800005023
:10C120004C0000505000005010B50320FFF7B6FF40
:10C13000002804D0831F5A1E93415B42184010BD53
:10C1400010B50388102B08D0112B05D1294A13688C
:10C15000013B1360002B07D010BD264C2368002B39
:10C1600011D001332360F7E7012202210020FFF7FD
:10C170006DFF00282BD0072829D01F4B1B68002BF0
:10C18000EAD09847E8E7012200210020FFF75EFF90
:10C19000002808D0072806D0174B1B68002B00D0BA
:10C1A00098472368DDE7072202210120FFF74EFFB1
:10C1B000002801D00728EFD1042202210020FFF738
:10C1C00045FF0028EDD00728E6D12368C9E70722FC
:10C1D00002210120FFF73AFF002801D00728CCD127
:10C1E0000A2200210020FFF731FF0028B4D00728E1
:10C1F000C3D1B1E7102300200C23002010B5234B3E
:10C2000082B00C1E18600AD06B460020991DFFF703
:10C21000C7FC002825D002B010BD022323701C4BA0
:10C220001B68002B01D00020F5E70122022100202D
:10C23000FFF70CFF002801D00728ECD107220221CC
:10C240000120FFF703FF002801D00728E3D10A22CD
:10C2500000210020FFF7FAFE0028E4D00728DAD1F9
:10C26000E1E76B460130D91DFFF79AFC0028D2D1D7
:10C270006B46DB79002BD0D16B469B79002B01D12B
:10C280002370CCE70B232370C9E7C0460C230020A2
:10C290001023002076DF70477ADF70477CDF70471D
:10C2A0007FDF7047A9DF704760DF70473CDF704772
:10C2B00048DF70470122014B1A7070475825002053
:10C2C00010B500220021FDF747FE10BD10B5037820
:10C2D000002B00D010BD064B3B211888FFF7DAFF7A
:10C2E0000028F7D000220021FDF736FEF2E7C04615
:10C2F0006820002010B5040001F07AFC21002448D9
:10C3000001F010FD2388112B2DD021D9132B11D032
:10C31000522B08D11F4B0022188800210023FFF761
:10C32000C1FF00280FD1200001F0EEFA2000FFF736
:10C3300007FF10BD174B0022188885210023FFF747
:10C34000AFFF0028EFD000220021FDF705FEEAE74D
:10C35000102BE8D10720FFF739FC002812D1A28862
:10C360000C4B1A80DFE70020FFF730FC002804D1D7
:10C370000122084B52421A80D5E700220021FDF726
:10C38000EBFDF5E700220021FDF7E6FDE7E7C046FB
:10C390003C2500206820002010B5072820D00A285E
:10C3A00010D0042800D010BD144B13211888FFF7BB
:10C3B00071FF082302009A43F5D000220021FDF707
:10C3C000CBFDF0E70020FFF701FC002810D1FFF7BC
:10C3D000ABFE002807D1FFF769FF0028E3D0ECE7A8
:10C3E00001F008FBE5E700220021FDF7B5FDF2E7CB
:10C3F00000220021FDF7B0FDE9E7C04668200020DB
:10C4000070B50378012B03D0002B07D0022B04D189
:10C41000406800220021FDF79FFD70BD104C114DBA
:10C4200020782818FEF716FB22780132D2B2AB181A
:10C43000013B1B7822700A2B01D0132AEDD992B24E
:10C440002900094801F07CFD082302009A4302D12B
:10C4500000232370E1E700220021FDF77DFDF7E7CF
:10C4600038250020242500203C25002070B5002A16
:10C4700000D19DE0524C08782378524E834202D17D
:10C48000012333700878504B1D78854200D17CE041
:10C49000012A29D048786578854254D05D78854254
:10C4A0004CD0022A20D08878A578854201D1012578
:10C4B00035709D78854200D174E0032A14D0C87885
:10C4C000E578854201D101253570DD78854200D1BE
:10C4D00070E0042A08D00A792179914201D1012122
:10C4E00031701B7993425AD03378012B31D0002B15
:10C4F00019D1334C651D2078FEF7C6FA0028FAD111
:10C500000134AC42F7D1314D314C28702000FCF79A
:10C51000B1FE002201212000FCF710F91128F8D00B
:10C520002B78002BFCD00D20FEF7AEFA0028FAD1B4
:10C530000A20FEF7A9FA0028FAD170BD0020307059
:10C54000022AB0D1D6E7012535705D788542A8D1A1
:10C55000F4E71B4C651D2078FEF796FA0028FAD107
:10C560000134AC42F7D1194D194C28702000FCF76A
:10C5700015FE322201212000FCF7E0F81128F8D046
:10C580002B78002BFCD03378B1E700203070012AE3
:10C59000B0D048786578854200D07FE7D3E70023A4
:10C5A0003370A1E700203070032A00D087E7A1E7AD
:10C5B000044E99E700203070042A00D08BE799E7F9
:10C5C000742000205C2700206C20002058250020CB
:10C5D00054F3010010B5002807D0032804D1013816
:10C5E000FFF7F4FA00280DD110BD0020FFF7EEFA96
:10C5F00000280CD1FFF798FD002810D1FFF756FE58
:10C600000028F1D000220021FDF7A6FCECE7002273
:10C610000021FDF7A1FCFFF787FD0028EED00022E6
:10C620000021FDF799FCE9E730B587B001A90A00C0
:10C630000B4B31CB31C211CB11C20123094C0A4A39
:10C6400020004B72FCF7EEFA002803D000220021F4
:10C65000FDF782FC2000FCF7A1FD07B030BDC0460D
:10C6600034F3010054F30100B5C2010010B50A0013
:10C6700001000248FDF770FC10BDC046EFBEADDE04
:10C68000F0B5C64600B5AAB002AF3A00854B03CB61
:10C6900003C21B880521138000200023824AFDF776
:10C6A00075FF002803D000220021FDF755FCA023D0
:10C6B000EA210322DB05C9005A507C490EAD5A50CD
:10C6C0002A007B4B143313CB13C27A4B7A4A1C9348
:10C6D00080231CAC5B006360A260E360774AFD3B93
:10C6E00021002800FEF764F9002803D00022002171
:10C6F000FDF732FC724A73490320FFF73BFC002828
:10C7000003D000220021FDF727FC21000020FFF7C5
:10C7100075FD002803D000220021FDF71DFC002339
:10C7200048226949082001F0F7FC002803D00022C4
:10C730000021FDF711FC082200212000FBF75AFD23
:10C7400001222378200093432370FFF7ADFD0028DA
:10C7500003D000220021FDF7FFFB5C4801F002FD41
:10C76000002803D000220021FDF7F6FB1123584ECC
:10C770002B70300001F0F4FD310082B22800FFF789
:10C780008DFD002803D000220021FDF7E5FB0822E3
:10C7900000212000FBF72EFD4E4B20001C93C823E8
:10C7A0005B041D93FFF778FD002803D000220021D1
:10C7B000FDF7D2FB002104222000FBF71BFD464BB6
:10C7C000210046481C9301F0DDFA002803D0002226
:10C7D0000021FDF7C1FB382200212800FBF70AFDEC
:10C7E00002232B70002338229846AB7000210533BA
:10C7F0002000EB70FBF7FEFC012305AE2382384BD3
:10C800002422002130006361FBF7F4FC0123337321
:10C810004023336174337361434632000093210037
:10C82000304B280000F0AEFF002803D0002200218A
:10C83000FDF792FB1C2200212000FBF7DBFCA0226D
:10C8400092026260F02200231203A26003221C9372
:10C85000E3812374244B20006361244B2273A36182
:10C8600001F08AF9002803D000220021FDF774FBB3
:10C87000FFF7DAFE39001E4801F058FDA022A1237F
:10C880000221D205DB00D150032001F01FF800285F
:10C8900003D1FFF70DFD0028FBD000220021FDF79A
:10C8A0005BFBF6E770F3010014230020040700008F
:10C8B00034F301005C2500205C26002001C4010047
:10C8C00099C30100CD0C0000DC240020F5C201005A
:10C8D00064F3010010003C006DC401003C25002001
:10C8E00064200020D5C50100CDC20100C1C20100F5
:10C8F0006CF3010071DF704772DF704779DF7047BA
:10C900007DDF704765DF7047F0B5DE4657464E461F
:10C910004546E0B587B0994610AB029204CB0700BC
:10C920001B8801919B46138803930388002B00D139
:10C93000C5E000239A4604AB0024DD1C160003E08A
:10C940003B8801349C422CDA7B68A1009C4604227F
:10C95000614405A801F0E0FC0022290005A8FFF7CA
:10C96000D1FF002800D08EE02B78022BE8D153466F
:10C970003288002B72D0931C9B4500DA8CE04A442D
:10C98000290005A8FFF7BEFF002800D07BE0328811
:10C990002B7801349B18338001239A463B889C42B4
:10C9A000D2DB51463288B046019200290DD01300E7
:10C9B000039A013B9B1A9BB2FF2B00D96CE011003C
:10C9C0004A465354338801933B88002B00D176E0CC
:10C9D000002300249A46464603E03B8801349C42EB
:10C9E0002BDA7B68A1009C460422614405A801F073
:10C9F00093FC0022290005A8FFF784FF8046002849
:10CA00005BD12B78102BE8D153463288002B45D0D0
:10CA1000130010335B453FDC4A44290005A8FFF7AB
:10CA200071FF00282FD132882B7801349B18338076
:10CA300001239A463B889C42D3DB33004646984606
:10CA40005346002B3BD043461B88019A013B9B1A5F
:10CA50009BB2FF2B20D849468B5415E0131D9B45F4
:10CA60001ADB4B460199013292B2328099543288D6
:10CA70002900013292B2328005A84A44FFF742FFF2
:10CA8000002800D183E70600300007B03CBC904688
:10CA90009946A246AB46F0BD0C26F5E713001233CB
:10CAA0009B45F9DB4B460132029992B23280995490
:10CAB0003288013292B23280AEE70600E4E7002607
:10CAC000E2E7C046F0B557464E464546DE460023EF
:10CAD000E0B517881380436B85B006000D00140085
:10CAE000002B00D164E1022F00D859E11A7802230B
:10CAF0000B701121238801339BB22380E9542388D2
:10CB000001339BB22380EA54238801339BB22380F4
:10CB1000326B002A00D170E019001231B94200D9FD
:10CB20003EE11121E9542388013901339BB223806E
:10CB3000E954238801339BB22380D17BE9542388B5
:10CB400001339BB22380917BE954238801339BB24C
:10CB50002380517BE954238801339BB22380117BCE
:10CB6000E954238801339BB22380D17AE954238886
:10CB700001339BB22380917AE954238801339BB21D
:10CB80002380517AE954238801339BB22380117AA0
:10CB9000E954238801339BB22380D179E954238857
:10CBA00001339BB223809179E954238801339BB2EE
:10CBB00023805179E954238801339BB22380117972
:10CBC000E954238801339BB22380D178E954238828
:10CBD00001339BB223809178E954238801339BB2BF
:10CBE00023805178E954238801339BB22380127843
:10CBF000EA54238801339BB223802E22B25C002AA0
:10CC000000D0CAE02D22B25C002A00D0F3E0B27856
:10CC1000002A00D036E1F278002A14D0D91CB9429B
:10CC200000D9BDE00221E9542388013901339BB2C8
:10CC30002380E954238801339BB22380EA5423885C
:10CC400001339BB223807268002A15D0D91CB942E7
:10CC500000D9A5E002211278E95423880831013374
:10CC60009BB22380E954238852B201339BB22380C4
:10CC7000EA542388013323803389002B00D0E5E078
:10CC8000338A002B00D0EEE0338B002B00D01CE168
:10CC9000306A002843D023889C460633BB4200D923
:10CCA0007EE00388052B00D8EAE0AE4AAE499A1828
:10CCB00092B289468A4200D8E2E04288052A00D82A
:10CCC000DEE0A84988469044414689B2494500D8EB
:10CCD000D6E0A6498B4204D08A4202D0934200D9C2
:10CCE000CEE005236246AB541222238801339BB267
:10CCF0002380EA54238801339BB223800288EB18F7
:10CD00001A70120A5A70238802339BB22380428819
:10CD1000EB181A70120A5A70238802332380736A40
:10CD20009846002B2ED09A882088911C831C5B1873
:10CD3000BB4235D8FE2933D803322A54FF22238838
:10CD400001339BB22380EA544246238801339BB2CD
:10CD500023801288EB181A70120A5A7043462088F2
:10CD6000023080B220809A88002A0BD0996800296E
:10CD700000D185E0281801F0CFFA42462388928836
:10CD80009B1823802C23F35C002B00D0F0E0337839
:10CD9000002B00D0A8E0002003E0D91CB94209D93B
:10CDA0000C2005B03CBC90469946A246AB46F0BD6F
:10CDB0000023ADE602211C20E954238801339BB2F5
:10CDC0002380E854238801339BB22380022A00D1B8
:10CDD0001CE100D8C1E0032A00D183E0042A4FD12E
:10CDE0000322EA542D22238801339BB22380B25CB4
:10CDF000002A00D10BE709330C20BB42D1D802A88E
:10CE0000FFF778FD0028CCD1082209212388694446
:10CE1000EA542388133201339BB22380EA542088DA
:10CE2000153A013080B22080281801F075FA6A4660
:10CE30002388127A06339BB22380002A00D0012275
:10CE4000EA54238801339BB22380E0E63000019747
:10CE500000942B00062202210830FFF755FD002820
:10CE600000D10DE79DE73000019700942B000722C9
:10CE700003211030FFF748FD002800D104E790E7B8
:10CE800007208EE704330C20BB4200D989E702A8B3
:10CE9000FFF734FD002800D083E703222388EA54FB
:10CEA0002388163201339BB22380EA546A462388D2
:10CEB000128901339BB22380EB181A70120A5A7040
:10CEC000238802339BB22380A5E6300001970094AB
:10CED0002B00152214211830FFF716FD002800D171
:10CEE000D6E65EE7E9547DE73288012AC8D0228879
:10CEF000901CB84200D953E7012B05D17378023357
:10CF00009B189F4200D24BE76B46023FBF1ABFB24D
:10CF1000281802A91F81FFF7F3FC002800D040E782
:10CF20003378022B00D174E0012B10D00822FE2FA1
:10CF300000D935E72388791CE954238801339BB253
:10CF40002380EA5423880133FF18278029E7737868
:10CF50009F42EBD31F000822E9E7012A90D100226B
:10CF6000EA543FE77FF3FFFF7DF30000FFFF00007F
:10CF7000B36A9846002B00D182E79B880233FE2BD0
:10CF800000D90DE70022914616329346163292469A
:10CF900020885A4601332B54238801339BB22380C7
:10CFA000EA544246238801339BB223801288EB184F
:10CFB0001A70120A5A7043462088023080B22080CC
:10CFC0009A88002A0CD09968002900D158E72818BF
:10CFD00001F0A2F9434620889B88C01880B22080C7
:10CFE0004B460133DBB299465346F35C4B4500D8C0
:10CFF000CDE64B46B26A5B0090464B449B0098449A
:10D0000043469B880233FE2BC3D9C9E60122EA546A
:10D01000E8E66B461B899F4200D287E71F00092282
:10D0200085E7C046F0B545464E46DE465746E0B574
:10D0300095B01F236A460500884603AED3810028B9
:10D0400000D1CBE0C3785B0700D4D0E0002333806D
:10D05000436B002B00D19BE11B7804ACC84AA37042
:10D0600003232280032103270522042033802B6B16
:10D07000002B00D0D4E02E23EB5C002B00D08CE101
:10D080002D23EB5C002B00D004E1AB78002B00D00B
:10D090009AE1EB78002B0FD0C81C1F2800D966E15D
:10D0A0000222012704AC62544A1C023189B292B2B6
:10D0B000A754635481B231806B68002B10D0CA1C16
:10D0C0001F2A00D953E10020185602230A2704AC76
:10D0D00063544B1C02319BB289B2E75432806054D6
:10D0E0002B89002B00D0A4E12B8A002B00D0AFE1CC
:10D0F0002B8B002B00D08DE12B6A002B36D0328891
:10D10000911D1F2900D932E1188805286FD99D4C3F
:10D110009D4F0419A4B2B946BC4268D95C88052C5D
:10D1200065D9984FBC46A4446746BFB24F455ED907
:10D13000964FB84203D0BC4201D0A04257D8052038
:10D14000122704ACA054501C80B22754901C80B20B
:10D1500030801F88201807703F0A477004325B88B0
:10D1600092B2A41823701B0A637031806F6A002F7B
:10D1700029D0B9883288881C931CC4181F2C00D968
:10D18000F5E0FE2800D9F2E0FF2004AC0331A15401
:10D19000511C89B2605433801B0439881B0CE3187E
:10D1A0000432197090B2090A59703080BA88002A86
:10D1B00009D0B96800291AD0201801F0ADF83388D9
:10D1C000BA889B1833802C23E95C002900D08AE0C0
:10D1D0002B78002B00D04FE104AC01E0002430801C
:10D1E0004346002B00D1C4E0DB78002B07D007209A
:10D1F00015B03CBC90469946A246AB46F0BD0E33F6
:10D200006B441A000CA94046FFF75CFC0028EFD1E4
:10D210006B469B7B0CAA31782000FFF76DFBE7E79C
:10D22000112104ACE15501392154D97BA154987BDB
:10D23000511C6054587B911C6054187BD11C605465
:10D24000D87A111D6054987A511D6054587A911DF6
:10D250006054187AD11D6054D8790131605498799E
:10D2600001316054587901316054187901316054AA
:10D27000D87801316054987801316054013131809F
:10D28000587810326054013131801B7832806354F9
:10D2900091B2F0E609310C201F29A9D80CA8FFF79C
:10D2A00029FB0028A4D108221B21338804ACE254B6
:10D2B0005A1C92B2023398B2A15416313080062221
:10D2C0006944201801F028F86A4630203188121885
:10D2D00012788B1D9BB2002A00D00122073189B23F
:10D2E000E2543180D1E6AF6A002F00D17FE7BB88DE
:10D2F0000233FE2B3BD8002291461632924616325C
:10D300009346308804AC524601332354431C9BB2ED
:10D31000E254831C9BB233803A88E31804301A70BD
:10D3200080B2120A5A703080BA88002A0DD0B968CB
:10D33000002900D15BE7201800F0EEFFBB883088A1
:10D34000C0185B4680B2E95C30804B460133DBB2EB
:10D3500099468B4200D33BE74B465F00AB6A4F4494
:10D360009C46BF006744BB880233FE2BCBD90C2000
:10D370003EE76B464246DA81002300224BE7C04677
:10D38000021100007FF3FFFF7DF30000FFFF0000AC
:10D39000002100270222012069E602201C274A1CE6
:10D3A00004AC92B26054A7548A1C92B2022B60D093
:10D3B00029D9032B5BD0042B00D018E70323A354F7
:10D3C000033189B231805BE604310C201F2900D97A
:10D3D0000EE70CA8FFF792FA002800D008E7032315
:10D3E0001922318804AC63544B1C9BB2E2546B4647
:10D3F000881C1B8E80B224180431237089B21B0A4A
:10D400006370318045E6012B00D0F0E60023A218BE
:10D410001370D5E71F23280004AC01930096230066
:10D42000152214211830FFF76FFA002800D163E6A7
:10D43000DEE61F23280004AC019300962300062299
:10D4400002210830FFF760FA002800D14CE6CFE651
:10D450001F23280004AC0193009623000722032118
:10D460001030FFF751FA002800D141E6C0E6A05481
:10D47000A6E70123A354A3E72A88012A00D1B6E630
:10D480003288901C1F2800D971E7012B04D16B78DA
:10D490001B181F2B00D96AE71D230CAF9B1A04AC85
:10D4A0009BB22018390099463B80FFF729FA0028E3
:10D4B00000D09DE62B78022B13D0012B17D04B46C2
:10D4C00008213B804B46FE2B00D950E74A46338863
:10D4D0000132E2545A1C023392B24B44A1543380BD
:10D4E0007EE63B889945EAD399460921EAE76B78BD
:10D4F0009945E4D33B8099460821E3E773DF704701
:10D5000074DF704770B5954E86B007220021300059
:10D51000FAF770FE924C934D6378002B0FD02B7866
:10D52000012B3AD0A278002A00D1F6E0022B42D19A
:10D530008D4B1B68002B34D18C4A137009E0A27804
:10D540002B78002A33D0022BF2D0012B33D10223C7
:10D550002B70A378002B11D07378002B3CD1B378BB
:10D56000002B39D1F378002B36D13379002B33D10E
:10D570007379002B30D1B379002B2DD103232B707D
:10D58000237B002B6FD104232B70237E002B6AD1C9
:10D590000023774A2B7013701EE0734B1B68002B1F
:10D5A00048D00121714A0820117098472B78012B2F
:10D5B00042D0022BCDD0227B002A01D1032BE2D016
:10D5C000227E002A01D1042BE2D0674A1268002A89
:10D5D00002D0033B012B4AD90022664B1A70182255
:10D5E00000216846FAF706FE00236A46137013729C
:10D5F0002A7801930393022A00D16FE044D9032AC9
:10D6000000D176E0042A66D16A46E3691382236A70
:10D610005382594B1A79002A00D186E02278002AD9
:10D6200004D0564A1278002A00D185E00422504BDB
:10D630001A7031E04D4A13706378002B87D07378ED
:10D64000002BC9D1B378002BC6D1F378002BC3D1FE
:10D650003379002BC0D17379002BBDD1B379002B66
:10D6600000D174E7B8E7404B1A68002AB4D0237899
:10D67000002BB1D0414B1B78002BADD101213D4B8C
:10D68000072019709047AAE7012A24D1694604931C
:10D69000374B01960A701A706846FFF72FFF002873
:10D6A00007D1314B1B68002B44D0314A1078984782
:10D6B000002006B070BD694603930423023230484F
:10D6C0000A720021C370FFF7ADFC0028F1D10522DA
:10D6D000274B1A702A78002AE3D0DDE76946012338
:10D6E0000B70A36801964B8263680B82204B1A7003
:10D6F000D2E76A4663695382236913821E4B1A7903
:10D70000002A0ED02278002A03D01C4A1278002A60
:10D71000D1D00322164B1A70BEE7022B00D04AE785
:10D720002CE71A7B002AF4D0ECE71A7B002A00D100
:10D730007CE773E70020BCE76946039304230232C9
:10D740000F480A720021C370FFF76CFC0028B0D1AB
:10D750000622074B1A702A78BDE7C046F82700203A
:10D76000602700205E270020C4270020F427002027
:10D770005D27002044280020342800204528002070
:10D7800084270020F8B504000E00002800D17DE0B9
:10D79000002A00D17AE000203D4908703D490B6025
:10D7A00006993D4B19603D490B0023CA23C323CA88
:10D7B00023C323CA23C3072200213948FAF71AFDDD
:10D7C000384B394A394D1A60394A00219A6028008D
:10D7D0003822FAF70FFD237822002B70A37810323D
:10D7E000AB70E378EB7063786B702B00103303CA77
:10D7F00003C32B00103A083303CA03C32B000832BB
:10D80000183303CA03C3636A002B11D0294B2A4F74
:10D810006B62616A9F600A881A80888898800028F5
:10D8200006D000238A68D25CFA5401338342F9D3CC
:10D83000A36A002B14D0214B214FAB62A16A9F60D9
:10D84000888898800A881A80002806D000238A6871
:10D85000D25CFA5401338342F9D32C23E25CEA54BC
:10D86000236A002B06D0174B2B62226A51885980FD
:10D8700012881A806368002B03D0134B6B606368B7
:10D880006B6031002800FFF7CDFBF8BD0E20FCE7F0
:10D890005E270020C4270020C0270020602700202A
:10D8A000F827002034280020482800208427002062
:10D8B00068280020E8270020C82700200028002032
:10D8C0000C2800202C2800203028002010B500242F
:10D8D0000B4B82B0187001A80194FDF70BFF0828CC
:10D8E00009D0002805D1019B002B05D00122054B52
:10D8F0001A7002B010BD0194FFF704FEF9E7C046AC
:10D900005E270020BC27002030B5038883B0112B90
:10D910001ED0192B07D0102B01D003B030BD828848
:10D920002D4B1A80F9E78479002CF6D12B4B1D780A
:10D93000022D4ED025D9032D38D0042DEDD1284B02
:10D940001C70284B1B68002BE7D000209847E4E7A9
:10D950000024254B1C70204B82881B889A42DCD106
:10D9600001251E4B01A81D700194FDF7C3FE082878
:10D9700011D0002814D1019B002B0DD01B4B1D7022
:10D98000CBE7012DC9D1022201A81A700194FDF73D
:10D99000B1FE0828EDD10194FFF7B4FD0028BCD0FA
:10D9A000134B1B68002BB8D09847B6E70C4A15708C
:10D9B000042201A81A700194FDF79CFE0828EAD001
:10D9C0000028EDD1019B002BE6D00122074B1A70F5
:10D9D000A3E70322EDE7C0467A2000205E2700205F
:10D9E0005D270020C427002045280020BC270020F8
:10D9F000C027002030B5174B83B01B78002B26D0F2
:10DA0000154C2378002B22D1144B1B78002B03D00C
:10DA1000FFF776FD00281BD101252570002401A801
:10DA20000194FDF767FE082807D000280AD1019B62
:10DA3000002B03D00A4B1D700AE00194FFF762FD32
:10DA4000002804D0074B1B68002B00D0984700200B
:10DA500003B030BD60270020452800205E2700204D
:10DA6000BC270020C027002075DF704776DF704795
:10DA70007ADF70477BDF704710B5184B82B018888B
:10DA8000174B984214D0174A174C13780133DBB266
:10DA90001370217B99420DD200231370237C002B3D
:10DAA00012D16369002B03D0002201A802709847AD
:10DAB00002B010BD0D49FFF7D7FF0028F8D0A369C9
:10DAC000002BF5D09847F3E73B21FFF7CFFF002865
:10DAD000E7D0A369002BE4D09847E2E78A2800202A
